:020000040800F2
:1000000098190020F5010008493500084D2900081D
:1000100045350008F3160008674800080000000096
:10002000000000000000000000000000F73B000896
:10003000251D000800000000DD350008713F0008A4
:100040000F0200080F0200080F0200080F0200084C
:100050000F0200080F0200080F0200080F0200083C
:100060000F0200080F0200080F0200080F0200082C
:100070000F0200080F0200080F0200080F0200081C
:100080000F0200080F0200080F0200080F0200080C
:100090000F0200080F0200080F0200080F020008FC
:1000A0000F0200080F0200080F0200080F020008EC
:1000B0000F020008D53F00080F0200080F020008D9
:1000C0000F0200080F0200080F0200080F020008CC
:1000D0000F020008654300080F020008954400085D
:1000E0000F0200080F0200080F02000800F002F8DB
:1000F00000F070F80AA090E8000C82448344AAF152
:100100000107DA4501D100F065F8AFF2090EBAE84F
:100110000F0013F0010F18BFFB1A43F0010318473B
:1001200054ED000074ED00000A444FF0000C10F88C
:10013000013B13F0070408BF10F8014B1D1108BF65
:1001400010F8015B641E05D010F8016B641E01F805
:10015000016BF9D113F0080F1EBF10F8014BAD1C55
:100160000C1B09D16D1E58BF01F801CBFAD505E073
:1001700014F8016B01F8016B6D1EF9D59142D6D3CD
:10018000704700000023002400250026103A28BFF5
:1001900078C1FBD8520728BF30C148BF0B607047F9
:1001A00066290AF0DA82642900F082800020704714
:1001B0001FB500F021FD04000020002109F0DEF948
:1001C000401C60600020002109F0C2F9E0601FBD02
:1001D00010B510BD00F058FE1146FFF7E9FF07F01B
:1001E00091FD00F084FE03B4FFF7F2FF03BC05F0BD
:1001F00016FB00000948804709480047FEE7FEE774
:10020000FEE7FEE7FEE7FEE7FEE7FEE7FEE7FEE7C6
:1002100004480549054A064B70470000753F000831
:10022000ED00000898130020981900209815002070
:1002300098150020704700000FB41CB5074B06AAA4
:100240007B4469460090059800F053FC0020694605
:1002500000F062FC1CBC5DF814FB0000D508000037
:1002600070B5044685690068C10601D5302600E0F6
:100270002026C00707D070BDD4E901213046904741
:10028000206A401C20626D1EF6D570BD70B5044614
:1002900085690078C00707D170BDD4E9012120200D
:1002A0009047206A401C20626D1EF6D570BD00008C
:1002B0002DE9F0410646002410687529314616A53F
:1002C00010D0AFF30080002802DA404213A507E007
:1002D00031688A0701D512A502E0490704D511A5A6
:1002E000012401E0AFF3008000210A2206F1240777
:1002F00009E0B0FBF2FCB0FBF2F302FB1C00303073
:1003000078541846491C0028F3D123462A46304623
:10031000BDE8F04100F081B9000000002D000000B0
:100320002B000000200000002DE9F05F8946044604
:100330004FF0000ADFF824B1FB44C0F820A02046AB
:10034000E168884700287DD0252806D0D4E901211E
:100350009047206A401C2062F1E700255F46204656
:10036000E16888472028064607DB312E05D2B819F8
:1003700010F8200C08B10543F1E7A80701D525F0D6
:100380000405C4F81CA00027C4F818A02A2E09D020
:10039000304605F03DFA38B304EB8708303EC8F824
:1003A000186019E059F8041B204604EB870291619C
:1003B000E1688847012F064618D1E069002820DA55
:1003C00025F020051DE0D8F8180000EB800006EBB2
:1003D00040003038C8F818002046E16888470646D3
:1003E00005F016FA0028EED1012F0AD02E2E08D1E2
:1003F0002046E16888477F1C0646022F45F020050D
:10040000C4DBA069002803DA404245F00105A06181
:10041000E80701D025F01005A6B1A6F14100192882
:1004200002D8203645F400654A463146204625600C
:100430004D46FFF7B5FE60B1012807D0ED1D25F050
:10044000070000E007E000F1080978E705F104097A
:1004500075E730467AE7206ABDE8F09F74E800004F
:1004600070B5064600F0CAF80468054630460A2210
:10047000002100F056FB2C6070BD30B505460B46E0
:100480002A4613F8014B12F8010B08B1A042F8D02C
:100490001CB1002802D06D1CF1E7284630BD10B514
:1004A000431C02E010F8011B71B18107FAD14FF033
:1004B000013202C88C1A8C4314EAC211F9D0C01A56
:1004C0000A0603D0C01E10BDC01A10BD0A0401D018
:1004D000801E10BD0902FCD0401E10BD421E12F845
:1004E000013F002BFBD111F8013B002B02F8013B2F
:1004F000F9D1704710B5203AC0F00B80B1E8185020
:10050000203AA0E81850B1E81850A0E81850BFF4FD
:10051000F5AF5FEA027C24BFB1E81850A0E818509C
:1005200044BF18C918C0BDE810405FEA827C24BFF0
:1005300051F8043B40F8043B08BF7047D20728BF7E
:1005400031F8023B48BF11F8012B28BF20F8023BCD
:1005500048BF00F8012B70474FF000020429C0F09B
:10056000128010F0030C00F01683CCF1040CBCF1E7
:10057000020F18BF00F8012BA8BF20F8022BA1EB37
:100580000C0100F008BB5FEAC17C24BF00F8012B1E
:1005900000F8012B48BF00F8012B704710B5044646
:1005A00010F0030F08BF11F0030F40F015804FF05B
:1005B000013E121FC0F20E8051F8043BA3EB0E0C5B
:1005C0002CEA030C1CEACE1C08BF40F8043BF0D018
:1005D000A1F1040102F10402521E08DB11F8013BF3
:1005E000002B00F8013BF7D11146FFF7B5FF20467D
:1005F00010BD704770477047704700000048704753
:100600003813002010B5FFF7F9FF006810BD10B5D2
:100610000446FFF7F3FF046010BD2DE9F0470D46D7
:1006200099469246044600F124080168880604D5DC
:10063000E06921F01001216000E00120A84201DD05
:10064000471B00E00027A1697A1902EB0900081A8C
:10065000A0612078C00602D42046FFF701FE0026E4
:1006600008E0D4E901211AF806009047206A401CEE
:10067000761C20624E45F4DB2078C0060AD5204661
:10068000FFF7EEFD06E0D4E9012130209047206A13
:10069000401C2062381EA7F10107F4DC07E0D4E912
:1006A000012118F805009047206A401C2062281E8E
:1006B000A5F10105F3DC2046FFF7E8FD20780006F0
:1006C00002D50220BDE8F0870120FBE770472DE945
:1006D000FF4F0C461E464FF0FF378BB0D2E90001AA
:1006E000DDF860800A908A46C1F30A5505B93D4697
:1006F000002108464FF00000BAF1000F00F440005E
:1007000005DA00EB80004FF4400101EA50004FEAA7
:100710009059B9F1010F00DDB9460A9850EA4A0034
:100720000ED044F61050A5F2FF3545432F14B8F112
:10073000000F1ED07542291E1EDDC9F100021CE00B
:10074000B8F1010F4FF0000001D0302103E0F24377
:1007500005E02154401CB042FBDB30460022002162
:1007600021540B99C1F80880C1E900200FB0BDE801
:10077000F08FBD1B6D1CDEE74A4600DA694206A811
:1007800000F014FB06AB93E8070003AB83E8070017
:1007900050460A9900F0F2FB8DE80700A0F50050E2
:1007A0001F3800900398002D09DD42F21F014A46D0
:1007B000084403A90390684600F051FE08E0A0F544
:1007C00000504A461F3803A90390684600F05BFEBC
:1007D0008DE807000004000C03D04FF0FF30410803
:1007E00000E01046B8F1000F03D000220092154639
:1007F0001EE0751E05D400F003FA303262556D1EFE
:10080000F9D5B3460122084302D000227F1C04E040
:100810002078302801D100227F1E002A099786D037
:100820001DE0112D07DA00F0EBF9303262556D1C36
:1008300050EA0102F5D1084302D00098C8B10EE099
:100840000021681E05E0235C625C63542254401E54
:10085000491C8142F7DBAB46A81B401E09900020D3
:1008600004F80B000B98099AC0F80880C0E9002B27
:100870007CE711264FF0000859E72DE9F04F884634
:100880000446D21D22F0070191B0D1E90001CDE963
:100890000A0104F089FC02460B98C00F01D02D20FC
:1008A00007E02068810701D52B2002E0202101EA22
:1008B000C000032A099001D0072A05DB0346414600
:1008C000204600F0E3F90BE12078800601D5E069CD
:1008D00000E00620B8F1650F814606D0B8F1660F3A
:1008E00018D0B8F1670F70D131E00020B9F1110FC5
:1008F000009001DB112301E009F101030AAA01A91B
:100900000CA8FFF7E4FEDDE90C70002609F10105F3
:10091000834647E001204B4600904FF000470AAA6B
:1009200001A90CA8FFF7D3FEDDE90DB00C995D46D7
:10093000002610B909F101000D18B9EB050003D428
:10094000C0F1FF3609F10105A5EB09002BE0B9F173
:10095000010F01DA4FF001090020B9F1110F0090E9
:10096000484601DD112300E003460AAA01A90CA8AC
:10097000FFF7ADFEDDE90C704D460026834620787A
:1009800000070AD4AB4500DA5D4601A8012D04DD5D
:10099000411911F8011C302907D04F4502DA17F12F
:1009A000040F04DA012082460FE06D1EEEE7002FEF
:1009B00002DCED1B3E4403E0781CA84200DD7D1CF8
:1009C000B81B00F1010A4FF000472078000703D45C
:1009D000AA4501DB4FF0FF3A0021B7F1004F0DF1BE
:1009E00043088DF8431024D002202B23002F01DA76
:1009F0007F422D230A21021EA0F1010000DC5FB11D
:100A000097FBF1FC97FBF1F201FB1C7C17460CF104
:100A1000300C08F801CDEEE7A8F101000370218841
:100A2000090501D5452100E06521A0F1010800F884
:100A3000011C09980FA9A1EB0807FF1D00B10120B7
:100A4000411901EBEA70A1693844081A401EA061FF
:100A50002078C00602D42046FFF702FC099828B18E
:100A6000D4E901219047206A401C20622078C0060A
:100A700022D52046FFF7F4FB1EE0002E04DBB34531
:100A800002DD01A8805D00E03020D4E9012190471B
:100A9000206A401C2062761CAAF101005FEA000A6D
:100AA0000AD100F0A9F8C0680168405CD4E90121CE
:100AB0009047206A401C2062281EA5F10105DCDC5D
:100AC00007E0D4E9012118F8010B9047206A401C87
:100AD0002062381EA7F10107F3DC2046FFF7D6FBA2
:100AE000032011B043E6000001694A1C0261087846
:100AF000704700B58FB0CDE901310021059105495E
:100B00007944CDE9031011466846FFF70DFC0FB09C
:100B100000BD0000E5FFFFFF0A6802F8010B0A6054
:100B200070472DE9F04791460F468046044600265F
:100B300014F8015B2DB100F057F80068405DC00764
:100B4000F6D12B2D02D02D2D18D0641E4A463946E1
:100B5000204600F0DBF827B13968A14201D1C7F87F
:100B600000804FF0020471050BD54042002803DDE0
:100B7000FFF744FD0460A007BDE8F08746F48066F7
:100B8000E4E70028F8DAFFF739FD04606FF0004071
:100B9000F2E74FF0000200B513469446964620391E
:100BA00022BFA0E80C50A0E80C50B1F12001BFF426
:100BB000F7AF090728BFA0E80C5048BF0CC05DF88C
:100BC00004EB890028BF40F8042B08BF704748BFDA
:100BD00020F8022B11F0804F18BF00F8012B70474E
:100BE000004870473813002010B500F005F8001DCC
:100BF00010BD00BF898900000048704758130020CD
:100C000030B5B0F10A024FEA900E71F100034EEADE
:100C1000817EB0EB0E0061EB91014FEA101E4EEAAF
:100C2000017E10EB0E0041EB11114FEA102E4EEA3F
:100C3000016E10EB0E0041EB11214FEA104E4EEA0F
:100C4000014E10EB0E0041EB1141401841F1000143
:100C50004FEAD00040EA41704FEAD10110EB800525
:100C60004FEA810444EA907444EB01046D1944EBAB
:100C70000404521BA3414FF0000348BF0A3200D5C1
:100C800030BD401C41F1000130BD00002DE9F041B4
:100C90001F46044603260168072A01F4006004DBAE
:100CA00008B116A505E016A503E008B115A500E0FA
:100CB00015A521F010002060A069C01EA0610FB131
:100CC000401EA0612046FFF7CBFA4FB1D4E90121C5
:100CD00038469047206A401C2062C01C206206E013
:100CE000206AFAE7D4E9012115F8010B9047761E36
:100CF000F8D22046FFF7CAFABDE8F0814E414E0017
:100D00006E616E00494E4600696E66002DE9F05F27
:100D1000824615468B4600270AF10104B946007841
:100D2000302801D09DB113E014F8010B0127782879
:100D300003D0582801D045B10AE00DB1102D07D1DC
:100D4000002714F8010B102502E0082500E00A2511
:100D50000026B0460EE005FB080005FB06F1012762
:100D60001FFA80F801EB1046B6F5803F00D3B94674
:100D700014F8010B294600F0ACF80028EBDABBF1BF
:100D8000000F05D00FB1641E00E05446CBF80040C0
:100D9000B9F1000F06D0FFF731FC02210160C81E37
:100DA000BDE8F09F48EA0640FAE700002DE9F04769
:100DB000814616468AB0334878440DC88DE80D0048
:100DC00030487844801C03AC0DC884E80D0041F61F
:100DD0009B300844372190FBF1F290FBF1F5A5F12F
:100DE000800501FB12041B3C02D56442012000E097
:100DF0000020DFF890A080460027FA44AAF1BE0A3E
:100E00000DE0E00709D03246684607EB47010AEBE0
:100E1000810100F038FB8DE8070064107F1C002C76
:100E2000EFD1184F7F44AC3F18E0E80714D007EB30
:100E300004100DF1180A90E80E008AE80E00C06850
:100E4000F04201D198190890324606A903A800F093
:100E50001AFB03AB83E807006D10641C002DE4D17E
:100E600032466946B8F1000F03A802D000F0F7FA45
:100E700001E000F008FBC9E90001C9F808200AB048
:100E8000BDE8F087A8DF00007546FFF7A9FEAE4673
:100E900005006946534620F00700854618B020B586
:100EA000FFF7B6F9BDE820404FF000064FF000070D
:100EB0004FF000084FF0000B21F00701AC46ACE802
:100EC000C009ACE8C009ACE8C009ACE8C0098D466F
:100ED00070473A2800D2303820F02002412A01D34E
:100EE000A2F13700884201D34FF0FF30704704462B
:100EF000AFF300802046FFF776F900004FF0013C89
:100F000050F8042B51F8043B9A4221D1A2EB0C0378
:100F1000934313EACC1317D150F8042B51F8043B38
:100F20009A4215D1A2EB0C03934313EACC130BD1D5
:100F300050F8042B51F8043B9A4209D1A2EB0C0360
:100F4000934313EACC13DBD04FF00000704700BF8F
:100F5000D01A01BAB1FA81F101F0180122FA01F0B8
:100F6000CB40C1F12001DBB2C0B2C01A2CFA01F3B0
:100F7000D11A914311EAC311E6D170475FEA400CE0
:100F800008BF91F0000F4FEA8C234FEAC12243EAD9
:100F900051514FEA1C5018BF00F5F0404FEA3000A5
:100FA00018BF41F000415FEA6C5C00F02980BCF1A1
:100FB000FF3F08BF40F080407047130C06BF12048B
:100FC0004FF0100C4FF0000C130E04BF12020CF186
:100FD000080C130F04BF12010CF1040C930F04BF93
:100FE00092000CF1020CD30F04BF52000CF1010C63
:100FF00011464FF00002A0F11F00A0EB0C0070475B
:1010000011F0004F08BF704731F000413FF4D5AFF9
:101010000B0C06BF09044FF0100C4FF0000C0B0E28
:1010200004BF09020CF1080C0B0F04BF09010CF1FD
:10103000040C8B0F04BF89000CF1020CCB0F04BF12
:1010400049000CF1010CCCF12003A0EB0C0022FABA
:1010500003F302FA0CF241EA030100F101007047C8
:1010600020F07F4C80EA030023F07F47ACEB0703BE
:1010700003F57C5300F0004003F1FF032DE98049A4
:101080004FEA154B09B44FEA144325EA0B4E24EA04
:1010900003480FF2042606EB132749083E785FEA5F
:1010A000320203FB0667C7F5000707FB06F64FEAA7
:1010B00054374FEAD64606F1020607FB066CCCF120
:1010C000005C4FEA1C472CEA074C07FB06F40CFBBC
:1010D00006F504EB15464FEA961634BF00204FF094
:1010E00000404FEAD13706FB07FC4FEA1C4C0CFBD3
:1010F0000BF7D21B03FB0CF761EB07010CFB0EF7A0
:10110000B0EB074072EB17420CFB08F734BFA2EBC1
:101110000742B2EB074261EB17414FEA0C444FEA3A
:10112000910706FB07FC4FEA1C4C0CFB0BF7B0EBDE
:10113000C74072EB573203FB0CF734BFA2EBC74238
:10114000B2EBC74261EB57310CFB0EF7B0EBC700B7
:1011500072EB57720CFB08F734BFA2EBC702B2EB7D
:10116000C70261EB5771039F4FEA816141EA921117
:1011700004EBCC044FEAD1374FEA826206FB07FC4E
:1011800042EA90124FEA80604FEA1C4C0CFB0BF7CE
:10119000D21B03FB0CF761EB07010CFB0EF7B0EB66
:1011A000074072EB17420CFB08F734BFA2EB074273
:1011B000B2EB074261EB17414FEA8C554FEA9107BA
:1011C00004EB9C2406FB07FC4FEA1C4C0CFB0BF7C2
:1011D000B0EBC74072EB573203FB0CF734BFA2EB06
:1011E000C742B2EBC74261EB57310CFB0EF7B0EBD5
:1011F000C70072EB57720CFB08F734BFA2EBC702B3
:10120000B2EBC70261EB577115EB4C254FEA8161D8
:1012100041EA92114FEA82624FEAD13742EA9012D4
:1012200006FB07FC44F100044FEA80604FEA1C4CC7
:101230000CFB0BF7D21B03FB0CF761EB07010CFB5C
:101240000EF7B0EB074072EB17420CFB08F734BF08
:10125000A2EB0742B2EB074261EB174115EB1C15FD
:101260004FEA813141EA92414FEA823242EA9042AA
:101270004FEA80304FEA0C7644F1000448EA034319
:101280004EEA0B484FF0000EB2EB080C71EB03076F
:1012900024BF624639464EEB0E0E4FF0000B00188D
:1012A000524149414BEB0B0BB2EB080C71EB0307BE
:1012B0007BF1000B24BF624639464EEB0E0E4FF019
:1012C000000B0018524149414BEB0B0BB2EB080CE1
:1012D00071EB03077BF1000B24BF624639464EEBEE
:1012E0000E0E51EA020718BF46F0010616EB0E7605
:1012F00055F1000254F1000103D5BDE88901BDE8B4
:101300000088BDE88901BDE80048B619524141EBAB
:101310000101A3F10103704780807F7E7D7C7B7A91
:101320007978777676757473727171706F6E6E6D91
:101330006C6C6B6A6A696868676666656464636337
:1013400062616160605F5F5E5E5D5D5C5C5B5B5ABD
:101350005A5959585857575656555555545453532A
:1013600052525251515050504F4F4F4E4E4D4D4D85
:101370004C4C4C4B4B4B4A4A4A49494948484847D0
:10138000474747464646454545444444444343430E
:101390004342424242414141002B26D4770021D0B2
:1013A0001CB54FEA370703B44FF010004FF010019F
:1013B0004FF000000FBCBDE810400BF1010BBBF17A
:1013C000010F08BF5FEA170722BF12F1010211F1F6
:1013D00001014FF0004143F1000300F0004043EAF7
:1013E00000007047F9D35708DAE746EA064613F1DA
:1013F000400F4FEA16461FDD13F1200FDFBF1643E3
:101400000A46002120335B42C8D0C3F1200746EAD8
:10141000064602FA07F74FEA164646EA0706C3F100
:10142000200722FA03F201FA07F721FA03F14FF03D
:10143000000342EA0702B1E746EA020646EA064628
:101440004FEA164646EA0106BCBF46EA0646360C97
:101450004FF000034FF000024FF000019EE72DE92E
:10146000C048934630B491E8380007C831EA400CD0
:1014700048BF34EA430C03D5FFF7F2FDFFF78CFFBA
:10148000F0BCBDE800882DE9C048934630B491E82F
:10149000380007C810F0804F08BF13F0804F03D109
:1014A00000F005F8FFF778FFF0BCBDE8008820F0F9
:1014B0007F4780EA030023F07F4C07EB0C03A3F582
:1014C0007C5300F00040A3F1FE0392F0000F00F007
:1014D000B38095F0000F00F077802DE901494FEAC5
:1014E00011404FEA144621EA004800FB06FC24EABA
:1014F000064708FB06F607FB08F800FB07F718EBA2
:1015000006484CEB164C4FEA124B18EB07484FEAD3
:1015100015464CEB174022EA0B4E0BFB06FC25EA66
:1015200006470EFB06F607FB0EFE0BFB07F71EEB4E
:10153000064E4CEB164C4FF000061EEB074E4CEBE4
:10154000174B18EB0B0840F1000018EB0E0B58EB93
:10155000000840F100008F1A4FF000013CBFC94362
:10156000661B14BFB5EB040C00213CBFC943F61B3E
:101570004FEA17444EEA8E0E27EA04454FEA1C470D
:1015800004FB07622CEA074C05FB07F70CFB05F68A
:1015900004FB0CFC16EB074642EB174216EB0C461D
:1015A00042EB1C421BEB060658EB0202414146EAA5
:1015B0009E0601D5BDE80189B619524141EB0101F2
:1015C000A3F10103BDE801894FEA14454FEA114731
:1015D00024EA054621EA074C05FB07F406FB07F75A
:1015E0000CFB06F105FB0CFC11EB074144EB174427
:1015F0004FEA124711EB0C4144EB1C4422EA074C22
:1016000005FB07F206FB07F70CFB06F605FB0CFCD7
:1016100016EB074642EB174216EB0C4642EB1C4515
:101620006A1854F1000148BF7047B619524141EBA6
:101630000101A3F10103704795F0000F37D04FEA85
:1016400011424FEA144721EA024624EA074C02FB02
:1016500007F106FB07F70CFB06F402FB0CFC14EB8E
:10166000074441EB17414FEA154714EB0C4441EB9B
:101670001C4125EA074C02FB07F506FB07F70CFBAC
:1016800006F602FB0CFC16EB074645EB174516EB7E
:101690000C4645EB1C42121951F1000148BF70473E
:1016A000B619524141EB0101A3F1010370474FEA22
:1016B00014454FEA114724EA054621EA074C05FB89
:1016C00007F106FB07F70CFB06F24FF0000605FBDF
:1016D0000CFC12EB074241EB174112EB0C4251EBB1
:1016E0001C4148BF7047921841EB0101A3F101036F
:1016F000704700BFFEE70000F0B503460C4603F15B
:101700006400C3B21846DF1703EB9777BE10981931
:10171000C1B2072091FBF0F700FB1710C1B28F1880
:10172000601EDFF830C01CF800003844C1B2DF177B
:1017300003EB9777BF10A3EB87071FB9032C01DAE0
:10174000481EC1B2072091FBF0F700FB1710C5B28D
:101750002846F0BD2400002008B54FF48070ADF895
:10176000000048208DF803006946024800F049FC5B
:1017700008BD0000000C014008B54FF48070ADF8C2
:10178000000010208DF8030003208DF80200694648
:10179000014800F036FC08BD000C01402DE9F04185
:1017A0000446812000F05CF90546C01705EB107077
:1017B0000011A5EB0017812000F052F90646C01772
:1017C00006EB1070001100EB800007EB400020706A
:1017D000832000F045F90546C01705EB1070001195
:1017E000A5EB0017832000F03BF90646C01706EB77
:1017F0001070001100EB800007EB40006070852046
:1018000000F02EF90546C01705EB10700011A5EB8E
:101810000017852000F024F90646C01706EB10706B
:10182000001100EB800007EB4000A070872000F063
:1018300017F90546C01705EB10700011A5EB00174E
:10184000872000F00DF90646C01706EB1070001156
:1018500000EB800007EB4000E070892000F000F909
:101860000546C01705EB10700011A5EB0017892085
:1018700000F0F6F80646C01706EB1070001100EBFA
:10188000800007EB400020718D2000F0E9F805464C
:10189000C01705EB10700011A5EB00178D2000F0AC
:1018A000DFF80646C01706EB1070001100EB800051
:1018B00007EB4000E0800020BDE8F08170B50446F1
:1018C00000218E2000F014F920780A2190FBF1F21B
:1018D00001FB120120780A2290FBF2F001EB0010CC
:1018E000C5B22946802000F003F960780A2190FBF8
:1018F000F1F201FB120160780A2290FBF2F001EB99
:101900000010C5B22946822000F0F2F8A0780A2122
:1019100090FBF1F201FB1201A0780A2290FBF2F099
:1019200001EB0010C5B22946842000F0E1F8E07810
:101930000A2190FBF1F201FB1201E0780A2290FBF0
:10194000F2F001EB0010C5B22946862000F0D0F875
:1019500020790A2190FBF1F201FB120120790A2281
:1019600090FBF2F001EB0010C5B22946882000F090
:10197000BFF860790A2190FBF1F201FB1201607956
:101980000A2290FBF2F001EB0010C5B229468A2032
:1019900000F0AEF8E0880A2190FBF1F201FB1201A1
:1019A000E0880A2290FBF2F001EB0010C5B2294654
:1019B0008C2000F09DF880218E2000F099F8002006
:1019C00070BD000008B50121082001F029FE4FF488
:1019D0006070ADF8000010208DF8030003208DF832
:1019E00002006946044800F00CFB4FF460710248A5
:1019F00000F0E3FB08BD0000000C01402DE9F041C0
:101A00000646FFF7DFFFC12000F02AF80446C017A2
:101A100004EB10700011A4EB0017C12000F020F8B7
:101A20000546C01705EB1070001100EB800007EBB6
:101A30004000012802D10020BDE8F08100218E2065
:101A400000F056F80121C02000F052F880218E20CD
:101A500000F04EF83046FFF731FF0020ECE70000C1
:101A600070B50646002500244FF400711F4800F0B1
:101A7000A4FB80211D4800F0A0FB052004F07AF8AB
:101A80004FF40071194800F09AFB052004F072F839
:101A9000304600F057F8FFF75FFE00BF19E08021E5
:101AA000124800F08AFB022004F064F864104FF43E
:101AB00080710E4800F078FB012801D144F08004C9
:101AC00080210A4800F07BFB022004F053F8681CD8
:101AD000C5B2082DE3DB8021044800F06EFB4FF413
:101AE0000071024800F069FB204670BD000C014007
:101AF00070B505460C464FF40071114800F05DFBCF
:101B000080210F4800F059FB052004F033F84FF412
:101B100000710B4800F053FB052004F02BF8284619
:101B200000F010F8204600F00DF84FF40071044862
:101B300000F043FB8021024800F03FFB70BD000035
:101B4000000C014070B504460025FFF715FE00BFEC
:101B50001EE08021104800F030FB04F0010028B1A5
:101B60004FF480710C4800F02AFB04E04FF48071C0
:101B7000094800F022FB022003F0FCFF8021064808
:101B800000F01DFB022003F0F5FF6410681CC5B2D5
:101B9000082DDEDB70BD0000000C014010B50024F4
:101BA0002548006820F070602349086008460068F6
:101BB00040F04070086040211F4800F0FEFA40F2FB
:101BC000EE2003F0D7FF40211B4800F0F8FA0F2069
:101BD00003F0D0FF1848006820F0706016490860D4
:101BE0000846006840F00060086002E0012003F051
:101BF000C1FF4021104800F0D7FA20B12046611CF7
:101C0000CCB2C828F2DBC82C01DB012010BD0024B7
:101C100002E0012003F0AEFF4021074800F0C4FAC3
:101C200020B92046611CCCB2F028F2DBF02C01DB9D
:101C30000120EBE70020E9E7000C014070B500242B
:101C4000002530E064101A48006820F070601849E0
:101C500008600846006840F0407008604021144861
:101C600000F0ABFA022003F085FF4021104800F09D
:101C7000A6FA0F48006820F070600D490860084619
:101C8000006840F0006008600C2003F073FF402102
:101C9000074800F089FA08B144F080043C2003F0C2
:101CA00069FF681CC5B2082DCCDB204670BD000062
:101CB000000C014070B504461948006820F07060BF
:101CC000174908600846006840F040700860012528
:101CD00022E004F00106641076B14021104800F0C3
:101CE0006CFA022003F046FF40210D4800F067FA2D
:101CF0003C2003F03FFF0DE04021094800F05DFA71
:101D00003C2003F037FF4021054800F058FA02203C
:101D100003F030FF681CC5B2082DDADD70BD00008D
:101D2000000C01407047000008B5002001F07CFA6B
:101D300005F036FD09480F231A466421009005205E
:101D400001F014FA06480E231A46642100908720F9
:101D500001F00CFA01200349087008BDA2C4000874
:101D600064C600088D0000201CB54FF6FF7001F01E
:101D70005BFA6FF07F4033490860334822231A46EC
:101D800010210090002001F0F1F9304822231A467A
:101D9000102100902A2001F0E9F92D4822231A464B
:101DA00010210090532001F0E1F92A4821231A461E
:101DB000102100907D2001F0D9F90C204FF6FF7121
:101DC00044F2082324A2CDE900100521072001F0E8
:101DD000F5F90C204FF6FF7144F208231FA2CDE95C
:101DE00000100521312001F0E9F90C204FF6FF71B8
:101DF00044F208231BA2CDE9001005215A2001F06E
:101E0000DDF90C204FF6FF7144F2082317A2CDE94B
:101E100000100521802001F0D1F9164800888123A7
:101E2000A02243210090002001F0B2F812A04FF64A
:101E3000FF7300900F48028844211E2000F0ACFC84
:101E40001CBD0000E8000020ECC70008F4D000082A
:101E5000FCD9000804E3000842504D0053504F32B3
:101E60000000000054454D50000000005354455000
:101E700053000000CA0000204578657263697365ED
:101E80002054696D6500000008B54FF6FF7001F041
:101E9000CBF903F0ABFD104800884023A0220021BD
:101EA0000090084601F074F80CA04FF6FF7344F25E
:101EB00008224B210090022000F09CFB09A04FF665
:101EC000FF7344F208226C210090022000F092FB84
:101ED00001200649087008BDCA0000204C6F6E3A08
:101EE000000000004C61743A000000008D000020EA
:101EF00030B5044604254FF4302000F06FF8054655
:101F0000042D17D10C48006940F002000A4908610D
:101F100008464461006940F0400008614FF43020F9
:101F200000F05CF805460448006941F6FD71084080
:101F300001490861284630BD0020024004200B49B9
:101F4000C96801F0010109B101200EE00749C96823
:101F500001F0040109B1022007E00449C96801F059
:101F6000100109B1032000E0042070470020024066
:101F70000348006940F08000014908617047000093
:101F80000020024070B504460D460426F00200F021
:101F900025F80646042E11D10948006940F00100D9
:101FA000074908612580F00200F018F80646044849
:101FB000006941F6FE71084001490861304670BD74
:101FC00000200240024803494860034848607047C7
:101FD0002301674500200240AB89EFCD00B50246E2
:101FE0000423FFF7ABFF034603E0FFF7A7FF034619
:101FF000521E012B01D1002AF7D102B90523184640
:1020000000BD2DE9F04102460025002600200023F6
:102010000024002791F803C00CF00F0591F803C0CD
:102020000CF0100CBCF1000F03D091F802C04CEA88
:10203000050591F800C0BCF1000F31D014680020F4
:102040002BE04FF0010C0CFA00F3B1F800C00CEAE1
:1020500003069E4220D183004FF00F0C0CFA03F7C9
:10206000BC4305FA03FC4CEA040491F803C0BCF13C
:10207000280F06D14FF0010C0CFA00FCC2F814C076
:102080000AE091F803C0BCF1480F05D14FF0010CF4
:102090000CFA00FCC2F810C0401C0828D1D3146010
:1020A000B1F800C0BCF1FF0F34DD546800202EE011
:1020B00000F1080C4FF0010808FA0CF3B1F800C069
:1020C0000CEA03069E4221D183004FF00F0C0CFA5C
:1020D00003F7BC4305FA03FC4CEA040491F803C07F
:1020E000BCF1280F05D100F1080C08FA0CF8C2F871
:1020F000148091F803C0BCF1480F07D100F1080C1F
:102100004FF0010808FA0CF8C2F81080401C0828AB
:10211000CED35460BDE8F081F0B50A460023002418
:102120000021002500F00046B6F1004F02D11D4EFF
:10213000F16901E01B4E7168C0F3034583B200F4FE
:102140004016B6F5401F08D121F07061154E766833
:1021500026F07066134F7E6012E000F48016B6F52C
:10216000801F06D1032606FA05F4A14341F07061F1
:1021700006E0460D360103FA06F6B14341F0706100
:1021800022B1460D360103FA06F6314300F000464F
:10219000B6F1004F02D1034EF16101E0014E7160D2
:1021A000F0BD0000000001400246002093680B4093
:1021B0000BB1012000E000207047416170470161D0
:1021C000704700002DE9F04F89B006460C463546B1
:1021D000687907902946022000F092F8285C069062
:1021E000079843287DD106984128FBD12946042031
:1021F00000F086F8285C84F824002946062000F0C8
:102200007FF8285C84F825002946032000F078F840
:1022100000EB050B584600F08FF8C4E90001294691
:10222000052000F06DF800EB050B584600F084F82F
:10223000C4E90201D4E90021104607F037FC64210B
:1022400090FBF1F707FB01F007F08DFCCDE90201EF
:10225000D4E900B35A4607F0EBFDCDE9040107F0DD
:10226000A3F98146384607F07EFCCDE904014846D3
:1022700007F0D4FE0022214BCDE9000107F082FADD
:10228000CDE90201DDE9042307F0C0F9C4E9040146
:10229000D4E90221104607F009FC642190FBF1F813
:1022A00008FB01F007F05FFCCDE90201D4E902B3BD
:1022B0005A4607F0BDFDCDE9040107F075F98246E5
:1022C000404607F050FCCDE90401504607F0A6FE59
:1022D00000220A4BCDE9000107F054FACDE90201D2
:1022E00000E009E0DDE9042307F090F9C4E9060104
:1022F000012009B0BDE8F08F0020FAE700004E4051
:102300002DE9F04106460D4600272846FEF7C7F89E
:10231000804600240CE0285D2C2801D1781CC7B22F
:10232000B74203D1601CC0B2BDE8F081601CC4B2EA
:102330004445F0DB0020F7E7FEB5054629460120BD
:10234000FFF7DEFF0446601EC4B2224629466846F7
:10235000FEF724F900200DF80400684601F0C0FCE7
:1023600006460F463046394603B0F0BD10B5024868
:10237000FFF714FA10BD00001400002010B5184833
:10238000007801282AD1174801780078401C154AA6
:102390001070142922DB14491448FFF713FFA8B169
:1023A0000020134908700E4908700F48D0E9062133
:1023B000104607F0F9F80F4908600B48D0E90421EE
:1023C000104607F0F1F80C49086004E000200849C5
:1023D00008700349087000200249087010BD000011
:1023E0006D0100201F01002020120020E8120020B3
:1023F0006E010020A4000020A800002010B50A23D0
:10240000294A2A492A4803F02DFA28480068294910
:10241000086000212748006808F0F8F828D226490B
:102420002448006807F094FE04464FF0814108F00C
:10243000EDF81DD821480078012819D100201F4946
:1024400008701F4800884EF66021884204DA1C4854
:102450000088401C1A4908801A48008818490988D1
:10246000884205D0164800881649088001F0E2FA33
:1024700000211048006807F0C9FF13D20D4800681A
:1024800080F000400B4908600B490A48006807F0DB
:102490005FFE04464FF0814108F0B8F802D80120F1
:1024A0000649087010BD0000B8000020B4000020EC
:1024B000B0000020BC000020000020411E010020D0
:1024C000920000201C0100202DE9F04706460F462F
:1024D00090469A46002445464FEA4800C0F1030959
:1024E0004AE07A1991B2321990B2524600F01EFABF
:1024F0007A1991B2321B90B2524600F017FA7A1B49
:1025000091B2321990B2524600F010FA7A1B91B291
:10251000321B90B2524600F009FA3A1991B2721980
:1025200090B2524600F002FA3A1991B2721B90B280
:10253000524600F0FBF93A1B91B2721990B2524622
:1025400000F0F4F93A1B91B2721B90B2524600F0BF
:10255000EDF9B9F1000F05DA042000FB049000F159
:10256000060907E0601B042101FB009000F10A0945
:10257000681E85B2601C84B2AC42B2DBAC4237D17B
:102580007A1991B2321990B2524600F0CFF97A1905
:1025900091B2321990B2524600F0C8F97A1B91B24A
:1025A000321990B2524600F0C1F97A1B91B2321B37
:1025B00090B2524600F0BAF93A1991B2721990B23B
:1025C000524600F0B3F93A1991B2721B90B25246DA
:1025D00000F0ACF93A1B91B2721990B2524600F079
:1025E000A5F93A1B91B2721B90B2524600F09EF9C7
:1025F000BDE8F0872DE9F84F0746884693469A468E
:10260000DDF828900097BBE099F8000080283DDABB
:1026100099F800600D2E05D1009F08F110001FFAF7
:1026200080F830E0202E03DDA6F1200086B200E025
:102630000026002422E000251CE004EB061054498B
:10264000085C80212941084040B108EB040291B2A6
:102650007A1990B25A4600F069F909E0D34507D0DB
:1026600008EB040291B27A1990B2524600F05EF97A
:10267000681CC5B2082DE0DB601CC4B2102CDADB8C
:1026800007F1080087B209F1010979E0002670E03E
:1026900006EB860000EBC6003E4911F8100099F8E1
:1026A0000010884263D106EB860000EBC600394972
:1026B00001EB4000407899F80110884257D100247E
:1026C00053E0002522E006EB860000EBC60031490E
:1026D00001EB4000801C10F81410802028410140BC
:1026E00041B108EB040291B27A1990B25A4600F057
:1026F0001DF909E0D34507D008EB040291B27A191D
:1027000090B2524600F012F9681CC5B2082DDADB0F
:10271000002526E006EB860000EBC6001D4901EB14
:102720004000801C012101EB4401415C80202841D4
:10273000014049B108EB040291B27A19083290B213
:102740005A4600F0F3F80AE0D34508D008EB04023B
:1027500091B27A19083290B2524600F0E7F8681C3C
:10276000C5B2042DD6DB601CC4B20C2CA9DB701CD6
:1027700086B2102E8CDB09F1020907F10C0087B23A
:1027800099F8000000287FF43FAFBDE8F88F000003
:102790004EA8000814BB00082DE9F84F07468846EC
:1027A00093469A46DDF828900097B3E099F8000028
:1027B00080283DDA99F800600D2E05D1009F08F1C0
:1027C00010001FFA80F830E0202E03DDA6F1200073
:1027D00086B200E00026002422E000251CE004EB85
:1027E00006105049085C80212941084040B108EB9F
:1027F000040291B27A1990B25A4600F097F809E0B3
:10280000D34507D008EB040291B27A1990B2524630
:1028100000F08CF8681CC5B2082DE0DB601CC4B267
:10282000102CDADB07F1080087B209F1010971E029
:10283000002668E006EB06103B4911F8100099F8F5
:10284000001088425DD106EB0610374901EB4000CD
:10285000407899F80110884253D100244FE00025B8
:1028600020E006EB0610304901EB4000801C10F818
:10287000141080202841014041B108EB040291B2BC
:102880007A1990B25A4600F051F809E0D34507D0C2
:1028900008EB040291B27A1990B2524600F046F861
:1028A000681CC5B2082DDCDB002524E006EB061011
:1028B0001D4901EB4000801C012101EB4401405CFB
:1028C00080212941084048B108EB040291B27A19ED
:1028D000083290B25A4600F029F80AE0D34508D0F1
:1028E00008EB040291B27A19083290B2524600F015
:1028F0001DF8681CC5B2082DD8DB601CC4B2102CB2
:10290000ADDB701C86B21F2E94DB09F1020907F1C2
:10291000100087B299F8000000287FF447AFBDE8A7
:10292000F88F00004EA80008CEBC000870B5044621
:102930000D461646681C83B2601C82B229462046AA
:1029400000F0AEFD304600F057FC70BD00BFFEE762
:1029500008B51020ADF8000003208DF802004820D3
:102960008DF8030069460248FFF74BFB08BD0000E5
:10297000000C014008B51020ADF8000003208DF8D0
:10298000020010208DF8030069460248FFF739FB6A
:1029900008BD0000000C014010B500200F49086080
:1029A0000F48006820F070400D4908600846006834
:1029B00040F0E040086000200A49C1F8BC01022054
:1029C00003F0D8F8012005490860022003F0D2F88E
:1029D00000200549C1F88C0110BD00008C81214206
:1029E00004080140000021420080214208B5012175
:1029F0000C2000F015FE4FF40040ADF80000102050
:102A00008DF8030003208DF8020069460B48FFF79C
:102A1000F8FA0820ADF8000010208DF8030003201C
:102A20008DF8020069460648FFF7EBFA01200549D8
:102A300008600549C1F8BC0108BD0000000801405C
:102A4000000C01408C8121420000214210B5002081
:102A50000F4908600F48006820F070400D49086079
:102A60000846006840F0E040086001200A49C1F8CB
:102A7000BC01022003F07EF8012005490860022015
:102A800003F078F800200549C1F88C0110BD000062
:102A90008C81214204080140000021420080214233
:102AA00070B500241348006820F070401149086098
:102AB0000846006840F080400860002515E00020CE
:102AC0000D490860022003F055F801200B49C1F8B8
:102AD0008C016006040E0A48006808B1601CC4B28C
:102AE000012003F047F8681CC5B2082DE7DB20463B
:102AF00070BD0000040801408C8121420080214209
:102B00003C01214270B504461448006820F0704032
:102B1000124908600846006840F0E0400860002064
:102B20000F490860002516E0E0090E4908606006BC
:102B3000040E022003F01EF801200B49C1F88C019D
:102B4000022003F017F8002005490860022003F076
:102B500011F8681CC5B2082DE6DB70BD0408014001
:102B60008C812142BC0121420080214210B50F48D6
:102B7000006820F070400D4908600846006840F089
:102B8000E040086001200A4908600A49C1F88C0148
:102B9000042002F0EFFF002005490860042002F045
:102BA000E9FF00200349C1F88C0110BD0408014071
:102BB000BC0121420080214210B50F48006820F07E
:102BC00070400D4908600846006840F0E040086029
:102BD00000200A4908600A49C1F8BC01042002F03B
:102BE000C9FF0120054908600549C1F8BC0104205E
:102BF00002F0C0FF10BD0000040801408C8121429A
:102C00000000214210B500241348006820F07040F5
:102C1000114908600846006840F0804008600120C3
:102C20000E49086002F0A6FF01200D49C1F88C0191
:102C300002F0A0FF07E0601CC4B2FA2C03DDFFF72E
:102C4000BBFF012010BD0548803800680028F2D184
:102C50000449086000BFF5E704080140BC012142B7
:102C6000008021428C81214210B500200A49086071
:102C7000FFF780FE00200949C1F89001022002F010
:102C800079FF012004490860052002F073FF00204D
:102C90000249C1F8940110BD948121420080214273
:102CA00008B50121082000F0BBFC3020ADF8000081
:102CB00010208DF8030003208DF8020069460448B7
:102CC000FFF79FF930210248FFF779FA08BD0000AD
:102CD000000C014010B500200A490860FFF74AFEC9
:102CE00001200949C1F89001022002F043FF0120B0
:102CF00004490860022002F03DFF00200249C1F8AB
:102D0000940110BD948121420080214270B5054696
:102D100000260024FFF71CFE00BF16E0002010492B
:102D20000860022002F026FF01200E49C1F894013C
:102D30006006040E0A488438006808B1601CC4B2FA
:102D4000012002F017FF701CC6B2082EE6DB15B991
:102D5000FFF7C0FF01E0FFF787FF204670BD0000CE
:102D6000948121420080214270B504460025FFF77E
:102D700001FE00200D49086000BF14E0E0090B4986
:102D8000091F08606006040E01200949C1F894017A
:102D9000022002F0EFFE002004490860022002F049
:102DA000E9FE681CC5B2082DE8DB70BD94812142A4
:102DB0000080214210B5FFF7DDFD012009490860C0
:102DC0000949C1F89401052002F0D4FE002005490C
:102DD0000860052002F0CEFE00200349C1F89401EE
:102DE00010BD0000908121420080214210B5FFF704
:102DF000C1FD0020084908600849C1F8900105207C
:102E000002F0B8FE0120044908600449C1F89001AD
:102E1000052002F0AFFE10BD9481214200802142C6
:102E200010B50024FFF794FD01200E49086002F060
:102E3000A1FE01200C49C1F8940102F09BFE07E0BD
:102E4000601CC4B2FA2C03DDFFF7D0FF012010BDD7
:102E50000448803800680028F2D10249091D086042
:102E600000BFF4E7908121420080214208B5012192
:102E70001D2000F0D5FB01211648FFF74DF94FF456
:102E80007040ADF8000048208DF8030069461248F4
:102E9000FFF7B7F84FF48070ADF8000048208DF8C8
:102EA000030069460D48FFF7ACF84FF40050ADF849
:102EB000000010208DF8030003208DF80200694601
:102EC0000748FFF79EF84FF400510548FFF775F9E2
:102ED00008BD000000023000000C01400008014065
:102EE000001001402DE9FF4F84B081468A46002042
:102EF000029083460698A0EB09050798A0EB0A0606
:102F0000CDF80490CDF800A0002D01DD012705E0EB
:102F10000DB9002702E04FF0FF376D42002E02DDB1
:102F20004FF0010806E016B94FF0000802E04FF03C
:102F3000FF387642B54201DD2C4600E034460020E1
:102F400003901EE0009A91B2019A90B2119AFFF795
:102F5000EDFC029828440290B3440298A04205DD9B
:102F60000298001B0290019838440190A34504DDAB
:102F7000ABEB040B0098404400900398401C80B2D7
:102F80000390611C03988842DCDB08B0BDE8F08F39
:102F90002DE9F04706460F4614461D46DDF820A0F1
:102FA000681E83B2601E82B23946304600F078FA5D
:102FB000B8460FE0B14606E0504600F01DF909F1B1
:102FC00001001FFA80F9A01C8145F5DB08F1010022
:102FD0001FFA80F8681C8045ECDBBDE8F087000034
:102FE00008B50121082000F01BFB0120ADF800000E
:102FF00003208DF8020010208DF8030069460A486E
:10300000FEF7FFFF0121042000F00AFBF020ADF8DD
:10301000000003208DF8020010208DF8030069469F
:103020000248FEF7EEFF08BD000C01400008014019
:103030002DE9FF4F83B080468A461546119C4FF01C
:10304000000B0195204604EBD071C1F347063046D2
:10305000F21706EB5272D2103146F31706EB537398
:10306000DB10A6EBC3030BB1012300E000231A44DD
:10307000624392B20092A5F12000C5B2302C02D179
:10308000A5F11000C5B2182C05D10198202802D056
:10309000A5F10D00C5B20AEB0401491E8BB208EB85
:1030A0000601491E8AB208F1020188B2514600F0B9
:1030B000F7F900274DE00C2C07D105EB4500274917
:1030C00001EB8000C05D02901DE0182C07D105EBDC
:1030D0004500234901EB0010C05D029013E0202C55
:1030E00004D120482844C05D02900CE0302C07D168
:1030F00005EBC5001C4901EB0010C05D029002E029
:1031000007B0BDE8F08F4FF000091CE0012000FA85
:1031100009F00299084018B1069800F06DF802E035
:10312000109800F069F80BF1010000F0FF0B9BFB19
:10313000F6F006FB10B010B94FF0000B06E009F1F5
:10314000010000F0FF09B9F1080FDFDB00BF781CB8
:1031500087B200988742AEDB00BFD1E7FFAD000821
:1031600043B20008E3B40008E4B400082DE9F04FCE
:103170000546884616461F46DDF8249008EB0701F1
:10318000491E8BB2A919491E8AB2A91C88B24146B0
:1031900000F086F900240BE019F814B009EB4400A4
:1031A00090F801A04BEA0A2000F026F8601C84B2D7
:1031B00006FB07F0A042EFDCBDE8F08F2DE9FC43F1
:1031C00006460F4614469846DDE909950EE0CDE91E
:1031D00000952278434639463046FFF729FF2846B6
:1031E00005EBD07106EB61018EB2641C20780028DB
:1031F000EDD1BDE8FC83000010B50446012008496C
:103200000860802007490860201200F059FBE0B2F6
:1032100000F056FB01200249091F086010BD0000A4
:10322000140C01401008014070B5064683239F220C
:103230000021084600F034F92C2000F06FF900243A
:1032400008E0002503E03046FFF7D6FF6D1C842D13
:10325000F9D3641CA02CF4D370BD10B5FFF7C0FEE9
:1032600000F00CF9112000F059F9782002F03AFC36
:10327000B12000F053F9012000F03CF92C2000F0BF
:1032800039F92D2000F036F9B22000F047F901207D
:1032900000F030F92C2000F02DF92D2000F02AF953
:1032A000B32000F03BF9012000F024F92C2000F0BD
:1032B00021F92D2000F01EF9012000F01BF92C202F
:1032C00000F018F92D2000F015F9B42000F026F9CF
:1032D000072000F00FF9C02000F020F9A22000F034
:1032E00009F9022000F006F9842000F003F9C1205A
:1032F00000F014F9C52000F0FDF8C22000F00EF92E
:103300000A2000F0F7F8002000F0F4F8C32000F0E5
:1033100005F98A2000F0EEF82A2000F0EBF8C4202E
:1033200000F0FCF88A2000F0E5F8EE2000F0E2F86A
:10333000C52000F0F3F80E2000F0DCF8362000F095
:10334000EDF8A02000F0D6F8E02000F0E7F80F201C
:1033500000F0D0F81A2000F0CDF80F2000F0CAF8E5
:10336000182000F0C7F82F2000F0C4F8282000F043
:10337000C1F8202000F0BEF8222000F0BBF81F208A
:1033800000F0B8F81B2000F0B5F8232000F0B2F8E8
:10339000372000F0AFF8602000F0ACF8072000F014
:1033A000A9F8022000F0A6F8102000F0A3F8E12010
:1033B00000F0B4F80F2000F09DF81B2000F09AF800
:1033C0000F2000F097F8172000F094F8332000F059
:1033D00091F82C2000F08EF8292000F08BF82E2098
:1033E00000F088F8302000F085F8302000F082F8F6
:1033F000392000F07FF83F2000F07CF8002000F03A
:1034000079F8072000F076F8032000F073F8102018
:1034100000F070F82A2000F081F8002000F06AF82F
:10342000002000F067F8002000F064F87F2000F032
:1034300061F82B2000F072F8002000F05BF800200B
:1034400000F058F8002000F055F89F2000F052F8E6
:10345000F02000F063F8012000F04CF8F62000F0B6
:103460005DF8002000F046F83A2000F057F80520FB
:1034700000F040F8292000F051F810BD10B54020B0
:1034800006490860642002F02DFB40200349091F13
:103490000860642002F026FB10BD00001408014003
:1034A000F0B505460C4616461F462A2000F036F8B1
:1034B000002000F01FF8E8B200F01CF8002000F037
:1034C00019F8B11CC8B200F015F82B2000F026F84E
:1034D000002000F00FF8E0B200F00CF8002000F03F
:1034E00009F8791CC8B200F005F82C2000F016F895
:1034F000F0BD000010B50446012006490860802098
:1035000005490860204600F0DBF901200149091F48
:10351000086010BD140C01401008014010B50446AD
:10352000012006490860802005490860204600F017
:10353000C7F901200149091F086010BD140C0140A2
:103540001408014000BFFEE7704710B54FF4A060BB
:1035500000F03AF810BD000070B5002100230F22E2
:10356000C47804B3154C246804F4E064C4F5E06442
:10357000210AC1F10403CA40447804FA03F18478B3
:103580001440214309010E4C0678A155047804F03B
:103590001F050124AC4005786D11AD0005F1E02553
:1035A000C5F8004109E0047804F01F050124AC408F
:1035B000044D0678761145F8264070BD0CED00E00C
:1035C00000E400E080E100E002490143024A1160AA
:1035D000704700000000FA050CED00E070470000A5
:1035E00029B1064AD2690243044BDA6104E0034A76
:1035F000D2698243014BDA6170470000001002403B
:1036000029B1064A12690243044B1A6104E0034AD5
:1036100012698243014B1A6170470000001002409A
:1036200029B1064A92690243044B9A6104E0034AB5
:1036300092698243014B9A6170470000001002407A
:1036400029B1064AD2680243044BDA6004E0034A17
:10365000D2688243014BDA607047000000100240DC
:1036600030B500210022002400232D4D6D6805F0A7
:103670000C0121B1042905D0082923D105E0294DE9
:10368000056022E0274D05601FE0254D6D6805F4BB
:103690007012234D6D6805F48034022505EB9242CB
:1036A0001CB9214D554305600BE01D4D6D6805F4B7
:1036B00000351DB11C4D5543056002E0194D5543C1
:1036C000056002E0174D056000BF00BF144D6D6836
:1036D00005F0F0010909154D6B5C0568DD4045609A
:1036E0000F4D6D6805F4E061090A104D6B5C45688B
:1036F000DD4085600A4D6D6805F46051C90A0B4DC7
:103700006B5C4568DD40C560054D6D6805F4404162
:10371000890B074D6B5CC568B5FBF3F5056130BDE2
:103720000010024000127A0000093D000000002055
:10373000100000202DE9FC5F002001900090FEF7B2
:103740002DFACC20FEF7B6FA4420FEF7B3FAFEF7C6
:1037500025FACC20FEF7AEFABE20FEF7ABFAFEF754
:103760006DFA8346FEF76AFA8246002001904BEA22
:103770000A2000B20190019806F0F5F98046002277
:10378000074B06F057FA06460022064B05F03EFFAF
:10379000044605F009FF00900098BDE8FC9F00007A
:1037A0000000B03F0000F83F2DE9FC4780460E4680
:1037B00017464FF00009B246002400200090019007
:1037C00051464046FCF759FE10B90120BDE8FC8780
:1037D00051464046FCF751FE044603E0641C0A20B3
:1037E00002F080F920783028F8DB20783928F5DCE1
:1037F00000250CE020780DF80500681CC5B2641C9B
:1038000020782C2800D108E00A2002F06BF92078FB
:10381000302802DB20783928ECDD00BF00200DF8CD
:1038200005006846FCF71CFE1FFA80F9A7F8009017
:103830000020CBE72DE9FC4780460E461746B146EF
:10384000002400200090019049464046FCF715FEF8
:1038500010B90120BDE8FC8749464046FCF70DFE43
:10386000044603E0641C0A2002F03CF9207830286A
:10387000F8DB20783928F5DC00250EE020782E28AA
:1038800002D10DF8050002E020780DF80500681C53
:10389000C5B2641C0A2002F025F92078302802DB2A
:1038A00020783928EADD20782E28E7D000200DF88E
:1038B0000500684600F0A4FA38600020CAE700005E
:1038C0000021082114E000F080021AB120220A4BE6
:1038D0001A6003E02022084B1B1D1A601022064BC1
:1038E0001B1D1A601B1F1A604206100E4A1ED1B221
:1038F0000029E8DC704700001008014030B503469D
:103900000C461546002207E0184600F0EBF824F8B4
:1039100012009B1C501C82B2AA42F5DB30BD000095
:103920001CB5052269461148FFF7E8FF00208DF815
:1039300005000FA16846FCF7A0FD48B905220CA1BF
:103940000A4800F0D3F8322002F0CCF800F072F808
:1039500000F018F808480949097830F811000849BA
:103960000880642002F0BEF81CBD0000B0FF000813
:10397000464459445A000000CC0000208A00002030
:10398000CA00002010B586B00024082201A92048F2
:10399000FFF7B4FF2146641C01A830F811001D494F
:1039A00008802146641C01A830F811001A490880DB
:1039B0002146641C01A830F81100184908802146EE
:1039C000641C01A830F81100154908802146641CC8
:1039D00001A830F81100134908802146641C01A891
:1039E00030F81100104908802146641C01A830F805
:1039F00011000E4908802046611CCCB201A911F8C3
:103A000010000B4908700A2002F06CF806B010BDD7
:103A1000C0FF00089C0000209E000020A0000020A5
:103A2000980000209A0000209400002092000020BE
:103A30008A00002010B586B0002421480288214663
:103A4000641C01A820F811201E4802882146641C2D
:103A500001A820F811201C4802882146641C01A8F6
:103A600020F81120194802882146641C01A820F87A
:103A70001120174802882146641C01A820F8112053
:103A8000144802882146641C01A820F8112012481D
:103A900002882146641C01A820F811200F480278F2
:103AA0002046611CCCB201A921F8102008220C4844
:103AB00000F01CF80A2002F015F806B010BD000056
:103AC0009C0000209E000020A00000209800002004
:103AD0009A00002094000020920000208A0000201C
:103AE000C0FF000801460888704700002DE9F04F2C
:103AF00080468A461746B8F1006F02D333488045A6
:103B000001D3BDE8F08FFEF75DFAA8F1006B4FEA34
:103B10009B25CBF34809C9F50074A74200DC3C465D
:103B20004DE04FF0006101EB85208A142849FFF732
:103B3000E5FE00260BE009EB0600254931F81000F0
:103B40004FF6FF71884200D003E0701C86B2A64297
:103B5000F1DB00BFA6421BDA4FF0006101EB8520CC
:103B6000FEF7C6F9002608E03AF8160006EB090150
:103B7000174A22F81100701C86B2A642F4DB4FF0FF
:103B8000006101EB85208A14114900F023F804E05C
:103B900022465146404600F01DF8A74200D10FE0F2
:103BA0006D1C4FF000090AEB440AA044381B87B291
:103BB000B7F5007F02DD4FF4007400E03C46B0E74B
:103BC00000BFFEF7D5F900BF9BE700000000010829
:103BD00070010020F0B505460E461746002407E0A8
:103BE00036F814102846FEF7CDF9AD1C601C84B2DF
:103BF000BC42F5DBF0BD704710B500F001F810BD18
:103C00000CB50020019000903348006840F48030EB
:103C10003149086000BF3048006800F4003000906F
:103C20000198401C0190009818B90198B0F5A06F58
:103C3000F1D12948006800F4003010B10120009053
:103C400001E0002000900098012843D1234800683B
:103C500040F01000214908600846006820F0030089
:103C600008600846006840F0020008601A48406892
:103C7000194948600846406848600846406840F472
:103C8000806048600846406820F47C104860084620
:103C9000406840F4E81048600846006840F08070D2
:103CA000086000BF0C48006800F000700028F9D0E0
:103CB0000948406820F0030007494860084640680A
:103CC00040F00200486000BF0348406800F00C006C
:103CD0000828F9D10CBD000000100240002002406D
:103CE0002DE9FF5F814600210F4688464FF0010B0A
:103CF0004E4668E030782E380C2829D2DFE800F0F4
:103D0000252806090C101316191C1F22002425460D
:103D10001EE00024304D1BE000244FF0804517E0EA
:103D200000242E4D14E000242D4D11E000242D4DD3
:103D30000EE000242C4D0BE000242C4D08E0002464
:103D40002B4D05E000242B4D02E000242A4D00BF3E
:103D500000BF0022284B2046294605F06BFE05D106
:103D60004FF0000B4FF0010A761C2CE0BBF1010F65
:103D70000ED10022214B3846414605F05BFF22461A
:103D80002B46CDE9020105F041FC0746884618E0C4
:103D90000AEB8A01480005F0E6FE02460B46CDE933
:103DA00000012046294605F0EDFC3A464346CDE9A0
:103DB000020105F02BFC074688460AEB8A004FEA11
:103DC000400A761C00BF3078002893D1384641461F
:103DD00004B0BDE8F09F00000000F03F0000084084
:103DE00000001040000014400000184000001C407B
:103DF0000000204000002240000047400000244016
:103E00002DE9F05F054600264FF001092C4653E0EE
:103E100020782E380C2821D2DFE800F01E2006087A
:103E20000B0E10131517191C002717E04FF07E57C3
:103E300014E04FF0804711E0224F0FE04FF0814730
:103E40000CE0214F0AE0214F08E0214F06E04FF03F
:103E5000824703E01F4F01E01F4F00BF00BF1E4914
:103E6000384606F037FA05D14FF000094FF0010847
:103E7000641C21E0B9F1010F09D11849304606F060
:103E8000F9FA8246394606F0F5F8064612E008EBE4
:103E90008801480006F08EFA83465946384606F0F7
:103EA00057F98246314606F0E5F8064608EB8800E9
:103EB0004FEA4008641C00BF20780028A8D1304693
:103EC000BDE8F09F000040400000A0400000C0405E
:103ED0000000E04000001041000038420000204196
:103EE0000121204A11802049896941F010011E4AB0
:103EF00091611E49496821F070611C4A5160114668
:103F0000496841F0407151601146C96841F48041EF
:103F1000D1601146496821F07061516011464968CD
:103F200041F0006151604FF480411161042808D1D3
:103F30004FF0E021096941F004014FF0E0221161E6
:103F400007E04FF0E021096921F004014FF0E02281
:103F500011610649098901F4804111B90021014A22
:103F60001180704734010020001002400010014011
:103F70007047000010B51348006840F00100114977
:103F8000086008464068104908400E4948600846E5
:103F900000680E4908400B4908600846006820F494
:103FA000802008600846406820F4FE0048604FF416
:103FB0001F008860FFF720FE4FF000600449086092
:103FC00010BD0000001002400000FFF8FFFFF6FEE9
:103FD00008ED00E010B50121724800F056F9002804
:103FE0007AD001216F4800F041F96F480088401CE9
:103FF0006D49088008460088192804DB00200880E5
:1040000001206A4908706A480088401C6849088095
:104010000846008832281EDB0020088065480068BA
:104020006549884207DA6548007820B16148006830
:10403000401C6049086062480078002804DD604840
:104040000078401E5E49087001205E4908705E4994
:1040500008705E4908705E4800885E490988884299
:104060000CDB5D48007828B901205C4908700A2003
:104070005349087001205849087002E00020564951
:1040800008705748006858B1554800685549098874
:1040900088421ADA5248006853490988884214DD78
:1040A0005248006828B1514800685149098888423F
:1040B0000BDD5048008850490988884205DD4D488D
:1040C00000884E490988884207DB0220434908706E
:1040D00001204B4908700BE063E04948007820B1AB
:1040E00000203E4908704749086000204449087094
:1040F0003A48007801283ED143480088401C424994
:10410000088008460088012801D13E4908603E48E1
:104110000088052802D100203A4908603A48008802
:10412000092802D1012037490860374800880E2845
:1041300002D100203349086033480088122802D198
:1041400001203049086030480088172802D100203B
:104150002C4908602C480088322804DB00202A49BA
:104160000880284908601648007820B900201B49BB
:1041700008702449086019480078022811D12248A3
:104180000088401C2049088008460088052808DB74
:104190001C480068C0431D49C1F8B40100201A49F9
:1041A000088010BD00040040260100208E00002081
:1041B00028010020C000002030700500C60000204B
:1041C000AD000020C4000020C5000020C700002072
:1041D00092000020940000202C010020AC00002060
:1041E000480000209C0000209E000020500000207D
:1041F000A0000020960000209A00002098000020D7
:104200002D010020B40122422A0100200000224298
:104210007FB505460C4601210220FFF7E1F9ADF814
:104220000850ADF804400020ADF80A00ADF80600D3
:1042300001A90D4800F044F8012211460A4800F097
:1042400035F81D208DF8000002208DF801008DF852
:10425000020001208DF803006846FFF77DF9012177
:10426000014800F006F87FBD00040040CA43028206
:10427000704721B1028842F00102028004E0028806
:104280004FF6FE731A400280704730B50246002098
:1042900000230024158A05EA0103958905EA010433
:1042A00013B10CB1012000E0002030BD1AB18389A8
:1042B0000B43838102E083898B4383817047000035
:1042C000002202881D4B98420ED01D4B98420BD005
:1042D000B0F1804F08D01B4B984205D01A4B984242
:1042E00002D01A4B984204D14FF68F731A404B8874
:1042F0001A43174B984207D0164B984204D04FF6FA
:10430000FF431A40CB881A4302808B8883850B8831
:1043100003850A4B98420BD0094B984208D00E4BAC
:10432000984205D00D4B984202D00D4B984201D1D6
:104330000B7A03860123838270470000002C014022
:10434000003401400004004000080040000C004020
:1043500000100040001400400040014000440140B3
:104360000048014010B540F22551404800F0BBF92B
:10437000002874D03D4800F071FAC4B2262C15D143
:104380003B48007890B9012039490870002139482C
:10439000FFF76FFF002201213648FFF787FF012159
:1043A0003448FFF763FF0020334908603048007845
:1043B000012815D1304801680068401C2E4A106061
:1043C0002E4844540A2C0BD10A202C4912688854D8
:1043D00001202B49087000202549087026490860F3
:1043E000432C08D12748007828B9012025490870B6
:1043F0000020254908702348007801282FD1224841
:1044000001780078401C204A10702048445410461F
:104410000078072823DB002011460870194908702E
:104420001A48007843281AD1184840784F2816D1E6
:10443000164880784E2812D11448C0784E280ED1E4
:104440001248007945280AD110484079432806D1FE
:104450000E488079542802D101200D49087040F29D
:104460002551024800F0C9F810BD00000038014095
:104470006501002000040040540100205812002073
:104480006601002064010020630100205C0100201F
:10449000C800002010B540F22551214800F023F952
:1044A00070B31F4800F0DAF9C4B21E480078012842
:1044B00026D1242C08D11C48007828B901201B499A
:1044C000087000201A49087018480078012817D190
:1044D000184801780078401C164A10701648445459
:1044E0000A2C0DD100201449127888540F49087005
:1044F00001200F4908700C49087000200D49087010
:104500000821074800F0E2F8012803D108210448F7
:1045100000F06AF840F22551014800F06EF810BD35
:1045200000480040880000206E0100206C0100203F
:104530006D0100206F010020E812002010B586B048
:10454000044601210820FFF76BF801218804FFF7DA
:1045500047F84FF40060ADF8000004208DF8030028
:1045600069461F48FDF74DFD4FF48060ADF800002F
:1045700003208DF8020018208DF8030069461848C2
:10458000FDF73FFD02940020ADF80C00ADF80E00E1
:10459000ADF81000ADF814000C20ADF8120002A91F
:1045A000104800F0EFF8012240F225510D4800F0CC
:1045B000C4F801210B4800F02FF84FF4A060FFF77A
:1045C00003F827208DF8040001208DF805008DF8F0
:1045D00006008DF8070001A8FEF7BEFF06B010BD6B
:1045E000000C01400048004001F40072B2F5007F69
:1045F00000D100BFCA430280704710B500220023DB
:1046000040F66A14A14200D100BF0A12012494406E
:10461000A3B2DC43048010BD21B1828942F4005270
:10462000828104E082894DF6FF731A4082817047CF
:1046300010B504462048844209D101218803FEF7C1
:10464000FFFF00214FF48040FEF7FAFF32E01B48E5
:10465000844209D101214804FEF7D2FF00214FF422
:104660000030FEF7CDFF25E01548844209D1012135
:104670008804FEF7C5FF00214FF48020FEF7C0FF3D
:1046800018E01048844209D10121C804FEF7B8FFA0
:1046900000214FF40020FEF7B3FF0BE00A488442EC
:1046A00008D101210805FEF7ABFF00214FF480106F
:1046B000FEF7A6FF10BD0000003801400044004096
:1046C00000480040004C00400050004002460020DE
:1046D000B1F5007F00D100BF13880B400BB1012062
:1046E00000E00020704770B502460024002300253A
:1046F000002040F66A16B14200D100BFC1F3421556
:1047000001F01F03012606FA03F3012D02D1968959
:10471000334006E0022D02D1168A334001E0968A2A
:1047200033400C12012606FA04F41688344013B103
:104730000CB1012000E0002070BDF0B5034600245C
:1047400000260025002040F66A17B94200D100BFBC
:104750001846C1F3421401F01F06012707FA06F5B7
:10476000012C01D10C3004E0022C01D1103000E00A
:1047700014301AB107682F43076002E00768AF439F
:104780000760F0BD2DE9F04786B005460E460024CF
:10479000A24600BFA1460027B08900B100BF2F4646
:1047A0002C8A4CF6FF700440F08804432C82AC89BC
:1047B0004EF6F3100440B0883189084371890843EC
:1047C0000443AC81AC8A4FF6FF400440B0890443F7
:1047D000AC8201A8FEF744FF1F48874202D1DDF8F2
:1047E00010A001E0DDF80CA0A88900F4004040B161
:1047F0000AEBCA0000EB0A1031684900B0FBF1F87F
:1048000007E00AEBCA0000EB0A1031688900B0FB30
:10481000F1F86420B8FBF0F004012009642101FBE9
:104820001089A88900F4004040B1322000EBC90093
:10483000B0FBF1F000F00700044308E0322000EB89
:1048400009106421B0FBF1F000F00F0004432C814B
:1048500006B0BDE8F08700000038014001468888B6
:10486000C0F30800704700BFFEE72DE9F047074698
:104870000E4615464FF00008C146C246002403E02C
:1048800000203055601CC4B2BC42F9DB002454E067
:10489000204604EBD0714910A4EB4101E9B9285D31
:1048A000302806DB285D392803DC285D303800F02D
:1048B000FF09285D412806DB285D462803DC285DCA
:1048C000373800F0FF09285D612806DB285D66287F
:1048D00003DC285D573800F0FF09204604EBD07157
:1048E0004910A4EB4101012925D1285D302806DBC0
:1048F000285D392803DC285D303800F0FF0A285D88
:10490000412806DB285D462803DC285D373800F0A7
:10491000FF0A285D612806DB285D662803DC285D28
:10492000573800F0FF0A0AEB091006F8080008F1F2
:10493000010000F0FF08601CC4B22846FBF7AFFD81
:10494000A042A5D8BDE8F0872DE9F04FBFB0002404
:1049500000203E903D9080463C90F8E2FCA1FE484D
:10496000FBF78BFD10B10020FC490870FCA1FA4850
:10497000FBF783FD002875D0F9A1F748FBF77DFD13
:10498000044603E0641C012001F0ACF820783028D4
:10499000F8DB20783928F5DC00250CE020783CA9EC
:1049A0004855681CC5B2641C20782F2800D108E047
:1049B000012001F097F82078302802DB2078392890
:1049C000ECDD00BF00203CA948553CA8FBF748FDA2
:1049D0008046642098FBF0F100FB118000280DDB7D
:1049E000642098FBF0F100FB1180632806DC642052
:1049F00098FBF0F100FB1180DB49C880641C0025A6
:104A00000CE020783CA94855681CC5B2641C20788D
:104A10002F2800D108E0012001F064F82078302828
:104A200002DB20783928ECDD00BF00203CA9485586
:104A30003CA8FBF715FD8046B8F1010F05DBB8F186
:104A40000C0F02DCC84981F80480641C00250DE0CD
:104A500020783CA94855681CC5B2641C20782C28D5
:104A600001D109E022E0012001F03CF82078302853
:104A700002DB20783928EBDD00BF00203CA9485537
:104A80003CA8FBF7EDFC8046B8F1010F0EDBB8F156
:104A90001F0F0BDCB44981F803800846FCF70EFFBA
:104AA000B2480078012801D1B1490870B1A1AA48E3
:104AB000FBF7E3FC00287DD0AEA1A748FBF7DDFCA7
:104AC000044603E0641C012001F00CF82078302833
:104AD000F8DB20783928F5DC00250CE020783CA9AB
:104AE0004855681CC5B2641C20783A2800D108E0FB
:104AF000012000F0F7FF2078302802DB20783928E9
:104B0000ECDD00BF00203CA948553CA8FBF7A8FC01
:104B10008046B8F1000F05DBB8F1170F02DC9249AF
:104B200081F80280641C00250CE020783CA94855DF
:104B3000681CC5B2641C20783A2800D108E0012026
:104B400000F0D0FF2078302802DB20783928ECDD17
:104B500000BF00203CA948553CA8FBF781FC8046DB
:104B6000B8F1000F05DBB8F13B0F02DC7E4981F89C
:104B70000180641C00250CE020783CA94855681C85
:104B8000C5B2641C20780D2800D108E0012000F097
:104B9000A9FF2078302802DB20783928ECDD00BF1F
:104BA00000203CA948553CA8FBF75AFC8046B8F1C8
:104BB000000F00E012E00EDBB8F13B0F0BDC6A499E
:104BC00081F800800846FCF779FE684800780128E3
:104BD00001D1674908705A2000F0F6FE3EAA67A18D
:104BE0005D48FEF7E1FD80B95A2000F0EDFEBDF80A
:104BF000F800C82809DCBDF8F800634908805B4864
:104C00000078012801D15A4908703EAA5FA1524894
:104C1000FEF7CAFD68B9BDF8F800C82809DABDF882
:104C2000F8005D49088051480078012801D15049B9
:104C300008703EAA59A14848FEF7B6FD68B9BDF80C
:104C4000F800C82809DABDF8F80057490880474835
:104C50000078012801D1464908703EAA53A13E4878
:104C6000FEF7A2FD78B9BDF8F8004EF66021884243
:104C700009DABDF8F800504908803C48007801285E
:104C800001D13B4908703DAA4CA13348FEF7D2FD43
:104C9000B8B93D9805F0C2F906464B4A4B4B04F0B3
:104CA0008DFF0ED24A493D9805F0E4FB064605F01B
:104CB00061FB484908802D480078012801D12C4922
:104CC00008703DAA44A12448FEF7B4FDB8B93D9848
:104CD00005F0A4F906463C4A3C4B04F06FFF0ED2A7
:104CE0003B493D9805F0C6FB064605F043FB3D49B0
:104CF00008801E480078012801D11D4908703AA19A
:104D00001548FBF7BAFB08B35A2000F05DFE39489E
:104D10000078401C37490870084600780D2801DBF0
:104D20000020087034483349097830F811003349BD
:104D300008800E48007850B93148007808B902F070
:104D40002FFD2F48007801287CD15BE092E08CE0B9
:104D5000535543434553530058120020C8000020C8
:104D6000796561723A000000140000208B00002079
:104D70008C000020686F75723A00000068656172EF
:104D80005F6D696E3A0000009E00002068656172E8
:104D90005F6D61783A0000009C00002073706F5FC7
:104DA0006D696E3A00000000A00000207365745F1A
:104DB000737465703A0000009400002074656D7093
:104DC0005F6D696E3A0000009A99999999F9584077
:104DD000000020419A00002074656D705F6D61785D
:104DE0003A00000098000020537769746368436FAD
:104DF0006C6F72008A000020CC000020CA000020E6
:104E00008F000020AC4800888123A022432100901D
:104E10000020FEF7BDF8A84800888123A022432186
:104E200000900020FEF7B4F8A4A04FF6FF730090A6
:104E3000A148028844211E20FDF7AEFC6FF07F40A0
:104E4000A2490860A2480078022811D100F0CEFDE6
:104E5000994800884023A022002100900846FEF7D0
:104E600097F801209B49087002E001209A490870D8
:104E7000FEF7E0FD99A19D48FBF7FFFA08B39C48B7
:104E80000078F0B95A2000F09FFD91480078401C4E
:104E90008F49087008460078022801DD002008705C
:104EA0008B48007808B9FCF73FFF89480078012853
:104EB00001D1FCF759FF86480078022801D1FCF7A0
:104EC000E3FF8CA18948FBF7D8FA58B188480078ED
:104ED00040B95A2000F078FD8848007880F0010041
:104EE0008649087086A18148FBF7C7FA68B18048F7
:104EF000007850B95A2000F067FD002083490880EF
:104F0000FEF798FD00208249087082A17748FBF7E0
:104F1000B4FA80B17648007868B95A2000F054FDA0
:104F20000020764908707E490860694800780128A9
:104F300001D100F045FE00207A49087001217A482D
:104F4000FFF797F9012211467748FFF7AFF9754847
:104F5000007801283FF402AD7448007801287DD123
:104F60007348007801287AD100207149087071A235
:104F70000FA9B420FFF779FC7148006805F04EF8DE
:104F800006460F466F48006805F048F881468A4695
:104F9000634800684FF4616190FBF1F201FB12007D
:104FA0003C2190FBF1F201FB12000E905C4800687E
:104FB0004FF4616190FBF1F201FB12003C2190FB88
:104FC000F1F00D90564800684FF4616190FBF1F0EC
:104FD0000C905D48008805F005FA5C49099005F0E1
:104FE000B7F8834605F01AF8CDE9069ACDE90867C7
:104FF000CDE90A01454B1B88DDE90C210E98CDE96E
:105000000232CDE90410DDE90A01CDE90001504882
:10501000036850485049026810A8FBF70DF94D4845
:10502000006878B14B4800684C490988884205DA25
:10503000484800684A490988884203DC49A10FA80A
:10504000FBF74CFA4248006860B1414800684849A3
:105050000988884206DC47A10FA801E025E027E087
:10506000FBF73CFA3848008845490988884205DD45
:105070003548008843490988884203DB42A10FA8CC
:10508000FBF72CFA2148008842490988884203DB53
:1050900041A10FA8FBF722FA42A10FA8FBF71EFAC5
:1050A000FF210FA804F006F902E000202049087053
:1050B0003FB0BDE8F08F0000CA000020457865725F
:1050C000636973652054696D65000000E800002085
:1050D0008F0000208D0000208C0000205377697421
:1050E0006368446973706C61790000005812002095
:1050F0008B0000207374617274000000C6000020F1
:10510000436C65616E53746570000000920000206E
:10511000AD000020436C65616E54696D6500000050
:10512000C00000206601002000040040C8000020EC
:10513000C7000020363332453143323200000000D0
:10514000A8000020A40000209600002000002041BC
:1051500050000020480000207CED00089C0000204A
:105160009E000020686561725F7761726E2C00009E
:10517000A000002073706F325F7761726E2C0000A8
:105180009A0000209800002074656D705F7761724E
:105190006E2C000094000020737465705F7761725C
:1051A0006E2C00000D0A0000490050EAC12018BF13
:1051B00004204A0D18BF40F0010040F2FF72B2EB2C
:1051C000515F08BF40F00200012808BF052070476A
:1051D0002DE9F74F144694B00021C4E90211159946
:1051E000079121F00045C9498D4206DC1599C4E9B3
:1051F000000117B00020BDE8F08FC549DFF814A307
:10520000A9423CDD0799C44E0029C44FC44A1599F0
:10521000534619DD04F018FE554506D0C14AC24B6D
:1052200004F012FEC4E900010AE04FF0D352BE4B75
:1052300004F00AFE32463B4604F006FEC4E90001D3
:1052400017B00120BDE8F08F04F0E0F9554506D015
:10525000B44AB54B04F0DAF9C4E900010AE04FF0B2
:10526000D352B14B04F0D2F932463B4604F0CEF9AA
:10527000C4E9000117B04FF0FF30BDE8F08FAB4933
:10528000A942159978DB21F0004183468846A84A57
:10529000A84B04F0CFFC0022A74B04F0B7F904F0B0
:1052A00005FC099004F05FFC06460F469C4A5346F5
:1052B00004F0C0FC43465A4604F0BAFD80468A46D4
:1052C000984A994B3046394604F0B4FC2A0D012522
:1052D0000B924246534604F0ABFD032DC4E9000196
:1052E00039D00B98C1F30A51401A05EB4511113919
:1052F000814230DA9148C346784400EB0510CDF87E
:105300000CA00C90D0E900233046394604F092FC02
:1053100002460B46049106905846039904F094FD0A
:1053200080468A4602460B465846039904F08CFD97
:10533000049B069A04F088FD83460C980391394635
:10534000D0E90223304604F075FC5A46039B04F072
:105350007BFD6D1CBDE707980028A2BF099817B018
:10536000BDE8F08F616881F000416160099817B075
:105370004042BDE8F08FFFE784461598C1F3130162
:10538000C0F30A50A0F2F5304FEA601800F01F0693
:10539000C6F12000139000200690079041F4801E73
:1053A00005206D4676B1664A08EB00017A4452F852
:1053B000213002EB8101B3404A68139922FA01F1CE
:1053C000194305E05F4908EB0002794451F82210C7
:1053D000A1FB0E27A1FB0C131A449A4234BF0123F0
:1053E000002303EB070A05EB8003D3E901B70F4461
:1053F0008F4234BF0121002193448B4411B1934566
:1054000002D903E0934501D2012100E00021C3E964
:1054100001B7514445F82010011EA0F10100C1DC84
:105420000298059F00F10050800F12900298DDE96C
:105430000356800004F097FB834628460D9104F044
:10544000A9FB6FF01D0205F0BCF9CDE90E01304655
:1054500004F0A0FB6FF03D0205F0B3F980468A46E8
:10546000384604F097FB6FF05D0205F0AAF9074695
:1054700042465346119104F0C9F8DDE90E2304F0C9
:10548000C5F85A460D9B04F0C1F800250E465A4651
:1054900028460D9B04F0D8FCDDE90E2304F0D4FC73
:1054A0004246534604F0D0FC3A46119B04F0C0FC3F
:1054B000DFF898A0244A534604F0BCFB0746884610
:1054C000234A244B3146284604F0B4FB3A4643466F
:1054D00004F09CF8074688464FF0A84253463146F0
:1054E000284604F0A7FB3A46434604F08FF8159A85
:1054F00012F0004F04D0129A81F0004152421292F1
:10550000C4E90001129817B0BDE8F08FFB21E93F14
:105510007CD90240FB21F93F7370032E8A19A33B0B
:10552000000040543163621A61B4D03DFB2139411F
:1055300083C8C96D305FE43F0000E03FFC98000085
:10554000789800005A980000182D4454FB21F93D2A
:105550003326A611460B113C2DE9FF4D21F00048E2
:1055600007460C46B8F1795F08DA04F09FFA002884
:1055700001BF0020324904B0BDE8F08D3A46234611
:105580001046194604F056FB054602462D480E46C5
:105590000B460621784400F05DF82A46334604F0B5
:1055A00049FBDDE9022382468B463846214604F05A
:1055B00041FB04460F4652465B462846314604F0FE
:1055C00039FB22463B4604F03FFC07468A464FF033
:1055D000FF322846314605F0F4F81B4A90450ADAB6
:1055E0003A46534604F030FC04B00022BDE8F04DCA
:1055F000134B04F01DBC154A4245A8BFA8F5001581
:105600004FF00004B8BF124D22462B4604F01CFC9C
:105610000646884622462B460020094904F014FC21
:1056200004460D463A4653463046414604F00CFCCB
:1056300004B022462B46BDE8F04D04F0F9BB000053
:105640000000F03F309600003333D33F0000E93FC5
:105650000000D23F2DE9F0414F1E00EBC701044688
:10566000D1E9000115461E4637F006020DD02A4644
:10567000334604F0DFFA7F1E04EBC703D3E90023AF
:1056800003F0C4FF37F00602F1D1022F25D0042F1A
:1056900013D0062F18BFBDE8F0812A46334604F028
:1056A000C9FAD4E90A2303F0B1FF2A46334604F0CD
:1056B000C1FAD4E9082303F0A9FF2A46334604F0CF
:1056C000B9FAD4E9062303F0A1FF2A46334604F0D1
:1056D000B1FAD4E9042303F099FF2A46334604F0D3
:1056E000A9FAD4E9022303F091FF2A46334604F0D5
:1056F000A1FAD4E90023BDE8F04103F087BF000020
:105700002DE9FF4D054621F0004084B00C46B0F174
:10571000795F0BDA2846FFF747FD042808BF00F041
:105720006FF8284608B02146BDE8F08D2A460B46A2
:10573000104604F07FFA06460F462A46234604F038
:1057400079FA804626488A4632463B460521784407
:10575000FFF780FF83461098029160B3214A224BE5
:105760004046514604F066FACDE900015A464046EB
:105770005146029B04F05EFA82468846DDE9060146
:105780004FF0FF3205F01DF85246434604F05CFB33
:1057900032463B4604F04EFADDE9062304F054FBA2
:1057A000DDE9002304F050FB08B02A462346BDE89B
:1057B000F04D04F03DBB0B465A463046394604F0E6
:1057C00039FA084A084B03F021FF4246534604F0D9
:1057D00031FA08B02A462346BDE8F04D03F016BF63
:1057E0006E950000495555555555C5BF012204F029
:1057F000E8BF002213461046114603F0C3BF000065
:10580000024A0020110704F0DCBF000001FDFFFF89
:1058100030380A2801D20120704700207047014625
:1058200000BF704710B5FDF73BFA0B21312000F0A7
:10583000B4F80B212C2000F0B0F808212D2000F046
:10584000ACF880212E2000F0A8F800211E2000F0E6
:10585000A4F800211F2000F0A0F80521202000F06E
:105860009CF810BD2DE9FE4304460D4616461F4622
:105870000020206028603060002F45D0804626E060
:105880006A4601A902A800F041F8BDF9080004F039
:1058900091FD8146216804F0EDFB2060BDF9040014
:1058A00004F088FD8146296804F0E4FB2860BDF916
:1058B000000004F07FFD8146316804F0DBFB3060BE
:1058C000052000F00FF908F1010000F0FF08B845CD
:1058D000D6DB384604F086FD81464946206804F050
:1058E00037FC2060384604F07DFD81464946286833
:1058F00004F02EFC2860384604F074FD81464946C9
:10590000306804F025FC3060BDE8FE832DE9FC41E1
:1059100005460E461746FDF74DFAA620FDF724FA78
:10592000FDF77EFA3220FDF71FFAFDF779FAFDF751
:1059300041FAA720FDF718FAFDF772FA00240EE0ED
:10594000052C05D10020FDF7E1F90DF8040004E075
:105950000120FDF7DBF90DF80400601CC4B2062C31
:10596000EEDBFDF743FA9DF800009DF8011000EB17
:10597000012000B228809DF802009DF8031000EB82
:10598000012000B230809DF804009DF8051000EB66
:10599000012000B23880BDE8FC8170B505460C4698
:1059A000FDF708FAA620FDF7DFF9FDF739FA2846DA
:1059B000FDF7DAF9FDF734FA2046FDF7D5F9FDF7E2
:1059C0002FFAFDF713FA70BD10B504460120054902
:1059D0000860204600F086F800200349C1F8B401B1
:1059E00010BD0000B401224200002242FF20044901
:1059F000087248728872C872087348738873704757
:105A00001400002000B5244B21F0004287B09A42D8
:105A1000DCBF0022134629DD204B9A4208D140B951
:105A20004FF00100FAF7F3FDFFF7E3FE07B000BD0A
:105A300003DBFFF7DBFE07B000BD02AAFFF7C8FBE0
:105A400010F0030104BF0DF1080C9CE80F000DD00D
:105A5000012001290ED0022914D00DF1080C00906C
:105A60009CE80F00FFF74CFE07B000BDFFF774FD88
:105A700007B000BD0DF1080C00909CE80F00FFF787
:105A80003FFE05E00DF1080C9CE80F00FFF764FDF8
:105A900007B081F0004100BDFB21E93F0000F07F2D
:105AA00010B56FF00400FEF71BFA0A4800680A49B7
:105AB000B0FBF1F0094908700846007800EB40019E
:105AC000C1EBC0104FF6FF7101EAC0000449088025
:105AD00010BD00003001002000127A0048010020B3
